{
    "contractName": "WavePortal",
    "abi": [
        {
            "inputs": [],
            "stateMutability": "nonpayable",
            "type": "constructor"
        },
        {
            "anonymous": false,
            "inputs": [
                {
                    "indexed": true,
                    "internalType": "address",
                    "name": "from",
                    "type": "address"
                },
                {
                    "indexed": false,
                    "internalType": "uint256",
                    "name": "timestamp",
                    "type": "uint256"
                },
                {
                    "indexed": false,
                    "internalType": "string",
                    "name": "message",
                    "type": "string"
                }
            ],
            "name": "NewWave",
            "type": "event"
        },
        {
            "inputs": [],
            "name": "getTotalWaves",
            "outputs": [
                {
                    "internalType": "uint256",
                    "name": "",
                    "type": "uint256"
                }
            ],
            "stateMutability": "view",
            "type": "function"
        },
        {
            "inputs": [
                {
                    "internalType": "address",
                    "name": "user",
                    "type": "address"
                }
            ],
            "name": "getUserWaves",
            "outputs": [
                {
                    "internalType": "uint256",
                    "name": "",
                    "type": "uint256"
                }
            ],
            "stateMutability": "view",
            "type": "function"
        },
        {
            "inputs": [],
            "name": "getWaves",
            "outputs": [
                {
                    "components": [
                        {
                            "internalType": "address",
                            "name": "waver",
                            "type": "address"
                        },
                        {
                            "internalType": "uint256",
                            "name": "timestamp",
                            "type": "uint256"
                        },
                        {
                            "internalType": "string",
                            "name": "message",
                            "type": "string"
                        }
                    ],
                    "internalType": "struct WavePortal.Wave[]",
                    "name": "",
                    "type": "tuple[]"
                }
            ],
            "stateMutability": "view",
            "type": "function"
        },
        {
            "inputs": [
                {
                    "internalType": "string",
                    "name": "_message",
                    "type": "string"
                }
            ],
            "name": "wave",
            "outputs": [],
            "stateMutability": "nonpayable",
            "type": "function"
        }
    ],
    "bytecode": "608060405234801561001057600080fd5b5061003c6040518060600160405280602681526020016109e76026913961004160201b6103f01760201c565b610101565b6100888160405160240161005591906100ac565b60408051601f198184030181529190526020810180516001600160e01b0390811663104c13eb60e21b1790915261008b16565b50565b80516a636f6e736f6c652e6c6f67602083016000808483855afa5050505050565b600060208083528351808285015260005b818110156100d9578581018301518582016040015282016100bd565b818111156100eb576000604083870101525b50601f01601f1916929092016040019392505050565b6108d7806101106000396000f3fe608060405234801561001057600080fd5b506004361061004c5760003560e01c8063449d46c0146100515780636cdca0ea146100665780639a2cdc081461008c578063a9d42f7e14610094575b600080fd5b61006461005f3660046105dc565b6100a9565b005b61007961007436600461068d565b61022e565b6040519081526020015b60405180910390f35b6100796102a3565b61009c6102df565b604051610083919061070a565b60016000808282546100bb9190610792565b9091555050604080518082019091526008815267012b99039b0bcb9960c51b60208201526100e99033610436565b336000908152600160208190526040822080549192909161010b908490610792565b90915550506040805160608101825233815242602080830191825292820184815260028054600181018255600091909152835160039091027f405787fa12a823e0f2b7631cc41b3ba8828b3321ca811111fa75cd3aa3bb5ace810180546001600160a01b03939093166001600160a01b031990931692909217825592517f405787fa12a823e0f2b7631cc41b3ba8828b3321ca811111fa75cd3aa3bb5acf84015590518051939491936101e5937f405787fa12a823e0f2b7631cc41b3ba8828b3321ca811111fa75cd3aa3bb5ad00192919091019061052d565b505050336001600160a01b03167f5f7e16dc676677766a70e9c5628aa6c54ddb8b6e5188e2ae1e1f17f1ffbea71642836040516102239291906107b8565b60405180910390a250565b60006102876040518060400160405280600f81526020016e25732068617320257320776176657360881b8152508360016000866001600160a01b03166001600160a01b031681526020019081526020016000205461047f565b506001600160a01b031660009081526001602052604090205490565b60006102d86040518060400160405280600f81526020016e546f74616c2077617665733a20257360881b8152506000546104cb565b5060005490565b60606002805480602002602001604051908101604052809291908181526020016000905b828210156103e7576000848152602090819020604080516060810182526003860290920180546001600160a01b0316835260018101549383019390935260028301805492939291840191610356906107d9565b80601f0160208091040260200160405190810160405280929190818152602001828054610382906107d9565b80156103cf5780601f106103a4576101008083540402835291602001916103cf565b820191906000526020600020905b8154815290600101906020018083116103b257829003601f168201915b50505050508152505081526020019060010190610303565b50505050905090565b610433816040516024016104049190610814565b60408051601f198184030181529190526020810180516001600160e01b031663104c13eb60e21b17905261050c565b50565b61047b828260405160240161044c929190610827565b60408051601f198184030181529190526020810180516001600160e01b031663319af33360e01b17905261050c565b5050565b6104c683838360405160240161049793929190610851565b60408051601f198184030181529190526020810180516001600160e01b03166307c8121760e01b17905261050c565b505050565b61047b82826040516024016104e192919061087f565b60408051601f198184030181529190526020810180516001600160e01b03166309710a9d60e41b1790525b80516a636f6e736f6c652e6c6f67602083016000808483855afa5050505050565b828054610539906107d9565b90600052602060002090601f01602090048101928261055b57600085556105a1565b82601f1061057457805160ff19168380011785556105a1565b828001600101855582156105a1579182015b828111156105a1578251825591602001919060010190610586565b506105ad9291506105b1565b5090565b5b808211156105ad57600081556001016105b2565b634e487b7160e01b600052604160045260246000fd5b6000602082840312156105ee57600080fd5b813567ffffffffffffffff8082111561060657600080fd5b818401915084601f83011261061a57600080fd5b81358181111561062c5761062c6105c6565b604051601f8201601f19908116603f01168101908382118183101715610654576106546105c6565b8160405282815287602084870101111561066d57600080fd5b826020860160208301376000928101602001929092525095945050505050565b60006020828403121561069f57600080fd5b81356001600160a01b03811681146106b657600080fd5b9392505050565b6000815180845260005b818110156106e3576020818501810151868301820152016106c7565b818111156106f5576000602083870101525b50601f01601f19169290920160200192915050565b60006020808301818452808551808352604092508286019150828160051b87010184880160005b8381101561078457888303603f19018552815180516001600160a01b0316845287810151888501528601516060878501819052610770818601836106bd565b968901969450505090860190600101610731565b509098975050505050505050565b600082198211156107b357634e487b7160e01b600052601160045260246000fd5b500190565b8281526040602082015260006107d160408301846106bd565b949350505050565b600181811c908216806107ed57607f821691505b6020821081141561080e57634e487b7160e01b600052602260045260246000fd5b50919050565b6020815260006106b660208301846106bd565b60408152600061083a60408301856106bd565b905060018060a01b03831660208301529392505050565b60608152600061086460608301866106bd565b6001600160a01b039490941660208301525060400152919050565b60408152600061089260408301856106bd565b9050826020830152939250505056fea26469706673582212202d0f9b7caf750c7288ba77429abeb4d553216f985381c89ff9c066174448a32964736f6c6343000809003348692c2074686973206973206d6521204920616d206120536d61727420436f6e747261637421",
    "sourcePath": "/Users/wcastrov/projects/personal/blockchain/buildspace/my-wave-portal/contracts/WavePortal.sol",
    "compiler": {
        "name": "solc",
        "version": "0.8.9+commit.e5eed63a"
    },
    "functionHashes": {
        "getTotalWaves()": "9a2cdc08",
        "getUserWaves(address)": "6cdca0ea",
        "getWaves()": "a9d42f7e",
        "wave(string)": "449d46c0"
    },
    "gasEstimates": {
        "creation": {
            "codeDepositCost": "452600",
            "executionCost": "infinite",
            "totalCost": "infinite"
        },
        "external": {
            "getTotalWaves()": "infinite",
            "getUserWaves(address)": "infinite",
            "getWaves()": "infinite",
            "wave(string)": "infinite"
        }
    }
}